:100000000C942A000C9447000C9447000C94470071
:100010000C9407010C942E010C9455010C947C0156
:100020000C94A3010C94CA010C94F1010C941802D5
:100030000C9447000C9447000C9447000C94470024
:100040000C9447000C9447000C9447000C94470014
:100050000C94470011241FBECFE5D8E0DEBFCDBF12
:1000600010E0A0E6B0E0ECE1F1E102C005900D92F5
:10007000A236B107D9F710E0A2E6B0E001C01D92A8
:10008000A237B107E1F70E9496060C948C080C94F5
:10009000000083B7806483BF83B7886083BF83B762
:1000A0008F7783BF83B78F7C83BF83B7887F85605B
:1000B00083BF08958CBF62BF089583B7887F83BFD5
:1000C000089582BF089589B7816089BF089589B76F
:1000D000826089BF089589B78E7F89BF089589B7E7
:1000E0008D7F89BF08958CBF089588B7816088BFD0
:1000F000089588B7826088BF08950895882379F4A9
:100100008FB58C7F8FBD8EB5877F8EBD8EB58F7E70
:100110008EBD8FB58F7B8FBD8FB58F7C8FBD4330EC
:10012000F9F0443028F4413079F04230B0F409C09D
:100130004530F9F04530D0F0463009F1473091F5BF
:1001400028C08EB58E7F02C08EB581608EBD8EB503
:100150008D7F8EBD8EB58B7F1AC08EB58E7F02C00F
:100160008EB581608EBD8EB58260F3CF8EB58E7FE9
:1001700002C08EB581608EBD8EB58D7F05C08EB5F7
:100180008E7F8EBD8EB582608EBD8EB584608EBD35
:1001900008958EB581608EBD8EB582608EBD8EB5A0
:1001A00084608EBD089589B7846089BF089589B73A
:1001B000806189BF089589B7886089BF0895909349
:1001C00065008093640008959093630080936200BB
:1001D000089590936D0080936C000895909367004C
:1001E0008093660008959093690080936800089555
:1001F00090936B0080936A000895909371008093B0
:100200007000089590936F0080936E0008951F9280
:100210000F920FB60F9211242F933F934F935F933A
:100220006F937F938F939F93AF93BF93EF93FF93BE
:10023000E0916E00F0916F000995FF91EF91BF91F1
:10024000AF919F918F917F916F915F914F913F916E
:100250002F910F900FBE0F901F9018951F920F9225
:100260000FB60F9211242F933F934F935F936F9389
:100270007F938F939F93AF93BF93EF93FF93E091FF
:100280007000F09171000995FF91EF91BF91AF91CE
:100290009F918F917F916F915F914F913F912F919E
:1002A0000F900FBE0F901F9018951F920F920FB6D0
:1002B0000F9211242F933F934F935F936F937F93EC
:1002C0008F939F93AF93BF93EF93FF93E0916C0055
:1002D000F0916D000995FF91EF91BF91AF919F91C2
:1002E0008F917F916F915F914F913F912F910F90DF
:1002F0000FBE0F901F9018951F920F920FB60F927E
:1003000011242F933F934F935F936F937F938F931A
:100310009F93AF93BF93EF93FF93E0916600F091AB
:1003200067000995FF91EF91BF91AF919F918F91D8
:100330007F916F915F914F913F912F910F900FBEE1
:100340000F901F9018951F920F920FB60F921124C5
:100350002F933F934F935F936F937F938F939F93CD
:10036000AF93BF93EF93FF93E0916800F091690022
:100370000995FF91EF91BF91AF919F918F917F91DF
:100380006F915F914F913F912F910F900FBE0F9002
:100390001F9018951F920F920FB60F9211242F9352
:1003A0003F934F935F936F937F938F939F93AF93FD
:1003B000BF93EF93FF93E0916A00F0916B00099572
:1003C000FF91EF91BF91AF919F918F917F916F912D
:1003D0005F914F913F912F910F900FBE0F901F9003
:1003E00018951F920F920FB60F9211242F933F93DF
:1003F0004F935F936F937F938F939F93AF93BF932D
:10040000EF93FF93E0916200F09163000995FF91F3
:10041000EF91BF91AF919F918F917F916F915F917C
:100420004F913F912F910F900FBE0F901F901895F5
:100430001F920F920FB60F9211242F933F934F9359
:100440005F936F937F938F939F93AF93BF93EF933C
:10045000FF93E0916400F09165000995FF91EF91A1
:10046000BF91AF919F918F917F916F915F914F91CC
:100470003F912F910F900FBE0F901F9018956F9284
:100480007F928F929F92AF92BF92CF92DF92EF9224
:10049000FF920F931F933B014C0159016A0121E028
:1004A00030E040E050E0EE24FF2487010DC0CA0197
:1004B000B901A40193010E944B089B01AC0108946F
:1004C000E11CF11C011D111DEA14FB040C051D05A6
:1004D00074F3B901CA011F910F91FF90EF90DF9063
:1004E000CF90BF90AF909F908F907F906F90089526
:1004F0006F927F928F929F92AF92BF92CF92DF9234
:10050000EF92FF920F931F933B014C0181E0A82EC5
:10051000B12CC12CD12C20C0C601B5012AE030E09D
:1005200040E050E00E944B087B018C01C401B30104
:100530000E946A085B016C01AE0CBF1CC01ED11E7C
:10054000C401B3012AE030E040E050E00E946A08B4
:10055000C901DA013C014D01611471048104910467
:10056000D9F6B501C6011F910F91FF90EF90DF9072
:10057000CF90BF90AF909F908F907F906F90089595
:100580000F931F9380E062E041E00E94090500EABA
:100590001FE0C8010197F1F780E062E040E00E94AF
:1005A0000905C8010197F1F71F910F9108951F9355
:1005B000182F482F441F4427441F81E064E00E9405
:1005C0000905412F429546954695417081E062E0CC
:1005D0000E940905412F42954695417081E061E0F6
:1005E0000E940905412F4295417081E060E00E9420
:1005F000090580E063E041E00E9409050E94C00215
:10060000412F469546954695417081E064E00E94F1
:100610000905412F46954695417081E062E00E94B0
:100620000905412F4695417081E061E00E9409056E
:10063000117081E060E0412F0E94090580E063E0D5
:1006400041E00E9409050E94C00280EA9FE00197F4
:10065000F1F71F910895EF92FF920F931F93611589
:1006600071058105910521F480E30E94D70234C011
:1006700097FF0BC0EE24FF248701E61AF70A080B48
:10068000190B8DE20E94D70202C07B018C01C801C8
:10069000B7010E9478027B018C0118C0C801B70124
:1006A0002AE030E040E050E00E946A08862F805D3A
:1006B0000E94D702C801B7012AE030E040E050E0D4
:1006C0000E946A08C901DA017C018D0181E0E81607
:1006D000F1040105110511F71F910F91FF90EF90A3
:1006E00008952F923F924F925F926F927F928F92D6
:1006F0009F92AF92BF92CF92DF92EF92FF920F93B1
:100700001F93DF93CF9300D000D0CDB7DEB76983BE
:100710007A838B839C8319012A011216130614060F
:1007200015060CF043C00E9429073B014C0191E0E3
:10073000A92EB12CC12CD12CEE24FF248701C60197
:10074000B5012AE030E040E050E00E944B085B0138
:100750006C010894E11CF11C011D111DE214F3044D
:100760000405150564F3C401B3010E942B038EE256
:100770000E94D702C401B3010E945C079B01AC0137
:1007800069817A818B819C810E94C4067B018C01E6
:10079000C601B5010E945C079B01AC01C801B7010D
:1007A0000E94E8070E9429070E942B030F900F90D8
:1007B0000F900F90CF91DF911F910F91FF90EF90CD
:1007C000DF90CF90BF90AF909F908F907F906F9071
:1007D0005F904F903F902F9008951F93CF93DF939A
:1007E000EC0110E003C00E94D7021F5FFE01E10F81
:1007F000F11D80818823B9F7DF91CF911F91089572
:100800001F93182F482F441F4427441F81E064E0A2
:100810000E940905412F429546954695417081E019
:1008200062E00E940905412F42954695417081E0A2
:1008300061E00E940905412F4295417081E060E02E
:100840000E94090580E063E040E00E9409050E94E3
:10085000C002412F469546954695417081E064E07F
:100860000E940905412F46954695417081E062E05E
:100870000E940905412F4695417081E061E00E9488
:100880000905117081E060E0412F0E94090580E0B8
:1008900063E040E00E9409050E94C00280EA9FE0F8
:1008A0000197F1F71F91089581E00E9400040895D7
:1008B000882329F46431D8F4862F80580DC0813004
:1008C00029F46431A0F4862F805406C0823039F4B4
:1008D000643168F4862F8C560E940004089583309A
:1008E00031F4643120F4862F8C520E940004089564
:1008F000DF92EF92FF920F931F93CF93DF937C01D0
:10090000162F042FD22E4430F8F483E18217E0F042
:100910006830D0F4862F880F880F880F805C0E9483
:100920000004C0E0D0E0F701EC0FFD1F80810E94C1
:10093000D7022196C830D105B1F7802F6D2D0E94C6
:100940005804812F0E94D702DF91CF911F910F9100
:10095000FF90EF90DF900895CF93DF93EA01882313
:1009600029F46431C8F4862F805814C0813029F4EA
:10097000643190F4862F80540DC0823029F46431A4
:1009800058F4862F8C5606C0833031F4643120F43D
:10099000862F8C520E940004CE010E94ED03DF914D
:1009A000CF91089580E063E041E00E94AF0580E0D0
:1009B00062E041E00E94AF0588EC90E020E931E080
:1009C000F9013197F1F70197D9F781E060E041E053
:1009D0000E94AF0581E061E041E00E94AF0581E047
:1009E00062E041E00E94AF0581E064E041E00E94E6
:1009F000AF0583E30E94000482E30E94000488E2C2
:100A00000E9400048CE00E94000481E00E94000427
:100A10000895843008F07FC0683008F07CC08130D1
:100A200031F1813038F0823009F43EC0833009F072
:100A300072C056C0442321F0413009F06CC00CC094
:100A40002BB381E090E002C0880F991F6A95E2F70E
:100A5000809582238BBB08952BB381E090E002C088
:100A6000880F991F6A95E2F7282B2BBB0895442322
:100A700021F0413009F04FC00CC028B381E090E074
:100A800002C0880F991F6A95E2F78095822388BB80
:100A9000089528B381E090E002C0880F991F6A95FD
:100AA000E2F7282B28BB0895442319F0413099F52B
:100AB0000CC025B381E090E002C0880F991F6A95B1
:100AC000E2F78095822385BB089525B381E090E00D
:100AD00002C0880F991F6A95E2F7282B25BB08955D
:100AE000442319F04130B9F40CC022B381E090E006
:100AF00002C0880F991F6A95E2F78095822382BB16
:100B0000089522B381E090E002C0880F991F6A9592
:100B1000E2F7282B22BB0895843000F56830F0F40A
:100B2000813039F0813028F0823019F08330B1F40F
:100B30000BC028B381E090E002C0880F991F6A952E
:100B4000E2F7282728BB089528B381E090E002C08F
:100B5000880F991F6A95E2F7282728BB08958430EB
:100B600008F07FC0683008F07CC0813031F18130FE
:100B700038F0823009F43EC0833009F072C056C0AC
:100B8000442321F0413009F06CC00CC02AB381E04D
:100B900090E002C0880F991F6A95E2F78095822342
:100BA0008ABB08952AB381E090E002C0880F991FA4
:100BB0006A95E2F7282B2ABB0895442321F041309F
:100BC00009F04FC00CC027B381E090E002C0880F4D
:100BD000991F6A95E2F78095822387BB089527B312
:100BE00081E090E002C0880F991F6A95E2F7282BF8
:100BF00027BB0895442319F0413099F50CC024B364
:100C000081E090E002C0880F991F6A95E2F7809515
:100C1000822384BB089524B381E090E002C0880F52
:100C2000991F6A95E2F7282B24BB0895442319F0F5
:100C30004130B9F40CC021B381E090E002C0880FCC
:100C4000991F6A95E2F78095822381BB089521B3AD
:100C500081E090E002C0880F991F6A95E2F7282B87
:100C600021BB08958430D0F46830C0F4813049F05D
:100C7000813028F0823039F0833081F406C089B3A6
:100C800005C086B303C083B301C080B390E002C047
:100C9000959587956A95E2F78170089585E00895A6
:100CA000843080F4813049F0813028F0823039F08E
:100CB000833041F406C06BBB089568BB089565BBE3
:100CC000089562BB0895843080F4813049F081300A
:100CD00028F0823039F0833041F406C06ABB0895B1
:100CE00067BB089564BB089561BB0895843088F4A0
:100CF000813049F0813028F0823039F0833049F476
:100D000006C089B3089586B3089583B3089580B368
:100D1000089585E0089582E060E041E00E940905C1
:100D2000809160008F5F8093600008951F930E9400
:100D3000D20482E060E041E00E94AF0581E060E023
:100D400044E00E947E008BE896E00E94F8000E943A
:100D5000BE0685E010916000811779F00E9454046E
:100D600080E060E00E9458046091600070E080E0E4
:100D700090E00E942B03812FEDCFFFCFEFE5F0E055
:100D800080818068808308955058BB27AA270ED0A1
:100D9000E5C0D6D030F0DBD020F031F49F3F11F425
:100DA0001EF4CBC00EF4E095E7FBC1C0E92FE7D0FD
:100DB00080F3BA17620773078407950718F071F478
:100DC0009EF5FFC00EF4E0950B2EBA2FA02D0B015F
:100DD000B90190010C01CA01A0011124FF27591B80
:100DE00099F0593F50F4503E68F11A16F040A22F86
:100DF000232F342F4427585FF3CF469537952795F7
:100E0000A795F0405395C9F77EF41F16BA0B620BF5
:100E1000730B840BBAF09150A1F0FF0FBB1F661F3C
:100E2000771F881FC2F70EC0BA0F621F731F841F7F
:100E300048F4879577956795B795F7959E3F08F0A5
:100E4000B3CF9395880F08F09927EE0F9795879564
:100E5000089504D06894B111B5C0089598D088F071
:100E60009F5790F0B92F9927B751A0F0D1F0660F96
:100E7000771F881F991F1AF0BA95C9F712C0B130B1
:100E800081F09FD0B1E008959CC0672F782F88270C
:100E9000B85F39F0B93FCCF3869577956795B395F0
:100EA000D9F73EF490958095709561957F4F8F4F5F
:100EB0009F4F0895E89409C097FB3EF49095809564
:100EC000709561957F4F8F4F9F4F9923A9F0F92F10
:100ED00096E9BB279395F695879577956795B7958E
:100EE000F111F8CFFAF4BB0F11F460FF1BC06F5F74
:100EF0007F4F8F4F9F4F16C0882311F096E911C086
:100F0000772321F09EE8872F762F05C0662371F0A6
:100F100096E8862F70E060E02AF09A95660F771FBA
:100F2000881FDAF7880F9695879597F9089597F9AE
:100F30009F6780E870E060E008959FEF80EC08957F
:100F400000240A94161617061806090608950024A8
:100F50000A9412161306140605060895092E039422
:100F6000000C11F4882352F0BB0F40F4BF2B11F496
:100F700060FF04C06F5F7F4F8F4F9F4F089557FDF5
:100F80009058440F551F59F05F3F71F04795880FF7
:100F900097FB991F61F09F3F79F08795089512168E
:100FA00013061406551FF2CF4695F1DF08C016163A
:100FB00017061806991FF1CF8695710561050894EB
:100FC0000895E894BB2766277727CB0197F9089502
:100FD0000BD0C4CFB5DF28F0BADF18F0952309F0A5
:100FE000A6CFABCF1124EECFCADFA0F3959FD1F3EC
:100FF000950F50E0551F629FF001729FBB27F00DC7
:10100000B11D639FAA27F00DB11DAA1F649F66271B
:10101000B00DA11D661F829F2227B00DA11D621F6A
:10102000739FB00DA11D621F839FA00D611D221F24
:10103000749F3327A00D611D231F849F600D211D08
:10104000822F762F6A2F11249F5750408AF0E1F0AB
:1010500088234AF0EE0FFF1FBB1F661F771F881FF4
:1010600091505040A9F79E3F510570F060CFAACF34
:101070005F3FECF3983EDCF3869577956795B795DF
:10108000F795E7959F5FC1F7FE2B880F911D969509
:10109000879597F90895629FD001739FF001829F11
:1010A000E00DF11D649FE00DF11D929FF00D839FF7
:1010B000F00D749FF00D659FF00D9927729FB00D94
:1010C000E11DF91F639FB00DE11DF91FBD01CF01A7
:1010D00011240895A1E21A2EAA1BBB1BFD010DC00D
:1010E000AA1FBB1FEE1FFF1FA217B307E407F507D8
:1010F00020F0A21BB30BE40BF50B661F771F881FB4
:10110000991F1A9469F760957095809590959B0149
:0C111000AC01BD01CF010895F894FFCFA1
:02111C000800C9
:00000001FF
