:100000000C942A000C942A040C9456040C94820438
:100010000C947F010C94A9010C943C000C940101F8
:100020000C942B010C9455010C94AD000C94D7004A
:100030000C943C000C943C000C943C000C943C0050
:100040000C943C000C943C000C943C000C943C0040
:100050000C943C0011241FBECFE5D8E0DEBFCDBF1D
:1000600010E0A0E6B0E001C01D92A537B107E1F7AE
:100070000E9474030C9439060C94000083B78064CA
:1000800083BF83B7886083BF83B78F7783BF83B70E
:10009000806383BF83B7887F856083BF08958CBFEB
:1000A00062BF089583B7887F83BF089582BF089594
:1000B00089B7816089BF089589B7826089BF089533
:1000C00089B78E7F89BF089589B78D7F89BF0895CD
:1000D0008CBF089588B7816088BF089588B7826013
:1000E00088BF089590E0A0E0B0E0BC01CD010E947F
:1000F000480520E030E048EC52E40E94B40420E0DF
:1001000030E04FE753E40E94D6050E941C0560953D
:100110006CBF08959093630080936200089590935C
:10012000610080936000089590936500809364005F
:1001300008959093670080936600089590936900F6
:1001400080936800089590936D0080936C000895EB
:1001500090936B0080936A0008951F920F920FB6E0
:100160000F9211242F933F934F935F936F937F933D
:100170008F939F93AF93BF93EF93FF93E0916000B2
:10018000F0916100099588B7826088BFFF91EF9177
:10019000BF91AF919F918F917F916F915F914F919F
:1001A0003F912F910F900FBE0F901F9018951F92A7
:1001B0000F920FB60F9211242F933F934F935F939B
:1001C0006F937F938F939F93AF93BF93EF93FF931F
:1001D000E0916200F0916300099588B7816088BF63
:1001E000FF91EF91BF91AF919F918F917F916F910F
:1001F0005F914F913F912F910F900FBE0F901F90E5
:1002000018951F920F920FB60F9211242F933F93C0
:100210004F935F936F937F938F939F93AF93BF930E
:10022000EF93FF93E0916400F0916500099588B722
:10023000806188BFFF91EF91BF91AF919F918F91A6
:100240007F916F915F914F913F912F910F900FBED2
:100250000F901F9018951F920F920FB60F921124B6
:100260002F933F934F935F936F937F938F939F93BE
:10027000AF93BF93EF93FF93E0916600F091670017
:10028000099588B7886088BFFF91EF91BF91AF91C2
:100290009F918F917F916F915F914F913F912F919E
:1002A0000F900FBE0F901F9018951F920F920FB6D0
:1002B0000F9211242F933F934F935F936F937F93EC
:1002C0008F939F93AF93BF93EF93FF93E0916C0055
:1002D000F0916D00099588B7846088BFFF91EF9118
:1002E000BF91AF919F918F917F916F915F914F914E
:1002F0003F912F910F900FBE0F901F9018951F9256
:100300000F920FB60F9211242F933F934F935F9349
:100310006F937F938F939F93AF93BF93EF93FF93CD
:10032000E0916A00F0916B00099588B7806888BFFA
:10033000FF91EF91BF91AF919F918F917F916F91BD
:100340005F914F913F912F910F900FBE0F901F9093
:1003500018951F920F920FB60F9211242F933F936F
:100360004F935F936F937F938F939F93AF93BF93BD
:10037000EF93FF93E0916C00F0916D00099588B7C1
:10038000806488BFFF91EF91BF91AF919F918F9152
:100390007F916F915F914F913F912F910F900FBE81
:1003A0000F901F901895843008F07FC0683008F0D7
:1003B0007CC0813031F1813038F0823009F43EC0A8
:1003C000833009F072C056C0442321F0413009F057
:1003D0006CC00CC02BB381E090E002C0880F991F65
:1003E0006A95E2F7809582238BBB08952BB381E059
:1003F00090E002C0880F991F6A95E2F7282B2BBB6B
:100400000895442321F0413009F04FC00CC028B3B7
:1004100081E090E002C0880F991F6A95E2F780950D
:10042000822388BB089528B381E090E002C0880F42
:10043000991F6A95E2F7282B28BB0895442319F0E9
:10044000413099F50CC025B381E090E002C0880FDF
:10045000991F6A95E2F78095822385BB089525B39D
:1004600081E090E002C0880F991F6A95E2F7282B7F
:1004700025BB0895442319F04130B9F40CC022B3D0
:1004800081E090E002C0880F991F6A95E2F780959D
:10049000822382BB089522B381E090E002C0880FDE
:1004A000991F6A95E2F7282B22BB0895843000F546
:1004B0006830F0F4813039F0813028F0823019F062
:1004C0008330B1F40BC028B381E090E002C0880F04
:1004D000991F6A95E2F7282728BB089528B381E081
:1004E00090E002C0880F991F6A95E2F7282728BB81
:1004F0000895843008F07FC0683008F07CC08130F7
:1005000031F1813038F0823009F43EC0833009F097
:1005100072C056C0442321F0413009F06CC00CC0B9
:100520002AB381E090E002C0880F991F6A95E2F734
:10053000809582238ABB08952AB381E090E002C0AF
:10054000880F991F6A95E2F7282B2ABB0895442348
:1005500021F0413009F04FC00CC027B381E090E09A
:1005600002C0880F991F6A95E2F78095822387BBA6
:10057000089527B381E090E002C0880F991F6A9523
:10058000E2F7282B27BB0895442319F0413099F551
:100590000CC024B381E090E002C0880F991F6A95D7
:1005A000E2F78095822384BB089524B381E090E034
:1005B00002C0880F991F6A95E2F7282B24BB089583
:1005C000442319F04130B9F40CC021B381E090E02C
:1005D00002C0880F991F6A95E2F78095822381BB3C
:1005E000089521B381E090E002C0880F991F6A95B9
:1005F000E2F7282B21BB08958430D0F46830C0F492
:10060000813049F0813028F0823039F0833081F434
:1006100006C089B305C086B303C083B301C080B3ED
:1006200090E002C0959587956A95E2F781700895EC
:1006300085E00895843080F4813049F0813028F0DD
:10064000823039F0833041F406C06BBB089568BB3B
:10065000089565BB089562BB0895843080F48130AD
:1006600049F0813028F0823039F0833041F406C0FF
:100670006ABB089567BB089564BB089561BB089584
:10068000843088F4813049F0813028F0823039F0AC
:10069000833049F406C089B3089586B3089583B3BF
:1006A000089580B3089585E0089581E064E00E9494
:1006B000560280916E00833010F410926E0080918B
:1006C0006E00825080936E00089581E064E00E9485
:1006D000560280916E008E5F80936E00853618F012
:1006E00084E680936E00089581E064E041E00E941A
:1006F00079020E94AE0481E062E00E94990382E0E8
:1007000062E00E94990385E693E061E00E94210483
:1007100085E593E062E00E9421040E943E0081E0B2
:1007200063E041E00E94790280916E000E947200B5
:10073000FBCF8230D9F1833009F46DC0813009F0EC
:100740007FC0623029F1633018F4613049F505C08B
:100750006330A9F0643021F509C0E5E5F0E080815F
:100760008E7F80838081826080831AC0E5E5F0E01F
:1007700080818E7F808380818D7F808311C0E5E5BD
:10078000F0E080818160808380818D7F808308C0DC
:10079000E5E5F0E0808181608083808182608083F4
:1007A000EBE5F0E08081806480830895623029F178
:1007B000633018F4613049F505C06330A9F0643046
:1007C00021F509C0E5E5F0E080818B7F80838081A1
:1007D000886080831AC0E5E5F0E080818B7F8083AC
:1007E0008081877F808311C0E5E5F0E080818460AF
:1007F00080838081877F808308C0E5E5F0E0808189
:1008000084608083808188608083EBE5F0E0808174
:10081000806880830895613019F0623061F406C009
:10082000E4E5F0E080818F7B808305C0E4E5F0E0C3
:10083000808180648083EBE5F0E08081806280834A
:100840000895E62FF0E0EE0FFF1FE159FF4F91836F
:10085000808308951F920F920FB60F9211242F9349
:100860003F934F935F936F937F938F939F93AF9338
:10087000BF93EF93FF93E0917100F091720009959F
:10088000EBE5F0E0808180648083FF91EF91BF9180
:10089000AF919F918F917F916F915F914F913F9118
:1008A0002F910F900FBE0F901F9018951F920F92CF
:1008B0000FB60F9211242F933F934F935F936F9333
:1008C0007F938F939F93AF93BF93EF93FF93E091A9
:1008D0007300F09174000995EBE5F0E08081806889
:1008E0008083FF91EF91BF91AF919F918F917F9105
:1008F0006F915F914F913F912F910F900FBE0F908D
:100900001F9018951F920F920FB60F9211242F93DC
:100910003F934F935F936F937F938F939F93AF9387
:10092000BF93EF93FF93E0917500F09176000995E6
:10093000EBE5F0E0808180628083FF91EF91BF91D1
:10094000AF919F918F917F916F915F914F913F9167
:100950002F910F900FBE0F901F901895EFE5F0E0CC
:1009600080818068808308950CD0E6C0DED040F09E
:10097000D5D030F021F45F3F19F0C7C0511110C13C
:10098000CAC0EBD098F39923C9F35523B1F3951B53
:10099000550BBB27AA2762177307840738F09F5FA0
:1009A0005F4F220F331F441FAA1FA9F333D00E2E0F
:1009B0003AF0E0E830D091505040E695001CCAF77C
:1009C00029D0FE2F27D0660F771F881FBB1F261741
:1009D00037074807AB07B0E809F0BB0B802DBF0114
:1009E000FF2793585F4F2AF09E3F510568F08DC056
:1009F000D7C05F3FECF3983EDCF38695779567951B
:100A0000B795F7959F5FC9F7880F911D96958795C4
:100A100097F90895E1E0660F771F881FBB1F6217E3
:100A200073078407BA0720F0621B730B840BBA0BA1
:100A3000EE1F88F7E095089598D088F09F5790F0C2
:100A4000B92F9927B751A0F0D1F0660F771F881FF3
:100A5000991F1AF0BA95C9F712C0B13081F09FD032
:100A6000B1E008959CC0672F782F8827B85F39F0D0
:100A7000B93FCCF3869577956795B395D9F73EF452
:100A800090958095709561957F4F8F4F9F4F0895FA
:100A9000E89409C097FB3EF4909580957095619518
:100AA0007F4F8F4F9F4F9923A9F0F92F96E9BB27CE
:100AB0009395F695879577956795B795F111F8CF4A
:100AC000FAF4BB0F11F460FF1BC06F5F7F4F8F4FB5
:100AD0009F4F16C0882311F096E911C0772321F0AB
:100AE0009EE8872F762F05C0662371F096E8862F43
:100AF00070E060E02AF09A95660F771F881FDAF79A
:100B0000880F9695879597F9089597F99F6780E8DC
:100B100070E060E008959FEF80EC089500240A944F
:100B20001616170618060906089500240A941216C8
:100B30001306140605060895092E0394000C11F4FB
:100B4000882352F0BB0F40F4BF2B11F460FF04C0A8
:100B50006F5F7F4F8F4F9F4F089557FD9058440F01
:100B6000551F59F05F3F71F04795880F97FB991F0C
:100B700061F09F3F79F087950895121613061406C9
:100B8000551FF2CF4695F1DF08C016161706180656
:100B9000991FF1CF86957105610508940895E89431
:100BA000BB2766277727CB0197F908950BD0C4CFD1
:100BB000B5DF28F0BADF18F0952309F0A6CFABCF48
:100BC0001124EECFCADFA0F3959FD1F3950F50E02B
:100BD000551F629FF001729FBB27F00DB11D639FEF
:100BE000AA27F00DB11DAA1F649F6627B00DA11D95
:100BF000661F829F2227B00DA11D621F739FB00D3B
:100C0000A11D621F839FA00D611D221F749F3327AA
:100C1000A00D611D231F849F600D211D822F762F43
:100C20006A2F11249F5750408AF0E1F088234AF040
:100C3000EE0FFF1FBB1F661F771F881F915050408C
:100C4000A9F79E3F510570F060CFAACF5F3FECF34C
:100C5000983EDCF3869577956795B795F795E79578
:100C60009F5FC1F7FE2B880F911D9695879597F989
:060C70000895F894FFCF87
:00000001FF
