:100000000C942A000C943F000C943F000C943F0089
:100010000C943F000C943F000C943F000C943F0064
:100020000C943F000C943F000C943F000C943F0054
:100030000C943F000C943F000C943F000C943F0044
:100040000C943F000C943F000C943F000C943F0034
:100050000C943F0011241FBECFE5D8E0DEBFCDBF1A
:1000600011E0A0E6B0E0E6E0F4E102C005900D92F8
:10007000A637B107D9F70E9441000C94010A0C94ED
:100080000000DF93CF93CDB7DEB728970FB6F89473
:10009000DEBF0FBECDBFDE011196E6E6F0E088E0E0
:1000A00001900D928150E1F70E94010380E067E02A
:1000B00040E650E00E94DB02CE01019660E043E0A2
:1000C0002AE00E94A70280E090E028960FB6F894FC
:1000D000DEBF0FBECDBFCF91DF9108956F927F92AB
:1000E0008F929F92AF92BF92CF92DF92EF92FF9248
:1000F0000F931F933B014C0159016A0121E030E04D
:1001000040E050E0EE24FF2487010DC0CA01B90190
:10011000A40193010E9489099B01AC010894E11C90
:10012000F11C011D111DEA14FB040C051D0574F3DF
:10013000B901CA011F910F91FF90EF90DF90CF900E
:10014000BF90AF909F908F907F906F9008956F9227
:100150007F928F929F92AF92BF92CF92DF92EF9257
:10016000FF920F931F933B014C0181E0A82EB12C0D
:10017000C12CD12C20C0C601B5012AE030E040E0FE
:1001800050E00E9489097B018C01C401B3010E94E7
:10019000A8095B016C01AE0CBF1CC01ED11EC401BE
:1001A000B3012AE030E040E050E00E94A809C90114
:1001B000DA013C014D016114710481049104D9F606
:1001C000B501C6011F910F91FF90EF90DF90CF9086
:1001D000BF90AF909F908F907F906F9008950F93F6
:1001E0001F9380E062E041E00E94380300EA1FE0D4
:1001F000C8010197F1F780E062E040E00E94380317
:10020000C8010197F1F71F910F9108951F93182FBF
:10021000482F441F4427441F81E064E00E943803B4
:10022000412F429546954695417081E062E00E94DB
:100230003803412F42954695417081E061E00E946C
:100240003803412F4295417081E060E00E943803FD
:1002500080E063E041E00E9438030E94EF00412FFC
:10026000469546954695417081E064E00E943803CA
:10027000412F46954695417081E062E00E94380327
:10028000412F4695417081E061E00E943803117072
:1002900081E060E0412F0E94380380E063E041E0AC
:1002A0000E9438030E94EF0080EA9FE00197F1F777
:1002B0001F910895EF92FF920F931F93611571059F
:1002C0008105910521F480E30E94060134C097FF67
:1002D0000BC0EE24FF248701E61AF70A080B190B5E
:1002E0008DE20E94060102C07B018C01C801B701AA
:1002F0000E94A7007B018C0118C0C801B7012AE049
:1003000030E040E050E00E94A809862F805D0E9406
:100310000601C801B7012AE030E040E050E00E9449
:10032000A809C901DA017C018D0181E0E816F10418
:100330000105110511F71F910F91FF90EF9008959E
:100340002F923F924F925F926F927F928F929F92E5
:10035000AF92BF92CF92DF92EF92FF920F931F93D3
:10036000DF93CF9300D000D0CDB7DEB769837A8317
:100370008B839C8319012A01121613061406150695
:100380000CF043C00E9499073B014C0191E0A92E5B
:10039000B12CC12CD12CEE24FF248701C601B5015C
:1003A0002AE030E040E050E00E9489095B016C01E6
:1003B0000894E11CF11C011D111DE214F304040555
:1003C000150564F3C401B3010E945A018EE20E9434
:1003D0000601C401B3010E943B079B01AC01698186
:1003E0007A818B819C810E94E3057B018C01C6018F
:1003F000B5010E943B079B01AC01C801B7010E94F7
:1004000041060E9499070E945A010F900F900F9089
:100410000F90CF91DF911F910F91FF90EF90DF90A0
:10042000CF90BF90AF909F908F907F906F905F9094
:100430004F903F902F9008951F93CF93DF93EC013F
:1004400010E003C00E9406011F5FFE01E10FF11DD5
:1004500080818823B9F7DF91CF911F9108951F9371
:10046000182F482F441F4427441F81E064E00E9456
:100470003803412F429546954695417081E062E0F0
:100480000E943803412F42954695417081E061E01A
:100490000E943803412F4295417081E060E00E9444
:1004A000380380E063E040E00E9438030E94EF00E0
:1004B000412F469546954695417081E064E00E9443
:1004C0003803412F46954695417081E062E00E94D5
:1004D0003803412F4695417081E061E00E94380366
:1004E000117081E060E0412F0E94380380E063E0FA
:1004F00040E00E9438030E94EF0080EA9FE00197ED
:10050000F1F71F91089581E00E942F02089588233A
:1005100029F46431D8F4862F80580DC0813029F435
:100520006431A0F4862F805406C0823039F46431DF
:1005300068F4862F8C560E942F020895833031F480
:10054000643120F4862F8C520E942F020895DF928E
:10055000EF92FF920F931F93CF93DF937C01162F9F
:10056000042FD22E4430F8F483E18217E0F0683093
:10057000D0F4862F880F880F880F805C0E942F028E
:10058000C0E0D0E0F701EC0FFD1F80810E94060162
:100590002196C830D105B1F7802F6D2D0E948702BA
:1005A000812F0E940601DF91CF911F910F91FF9043
:1005B000EF90DF900895CF93DF93EA01882329F429
:1005C0006431C8F4862F805814C0813029F4643116
:1005D00090F4862F80540DC0823029F4643158F491
:1005E000862F8C5606C0833031F4643120F4862F78
:1005F0008C520E942F02CE010E941C02DF91CF91EB
:10060000089580E063E041E00E94BB0380E062E087
:1006100041E00E94BB0388EC90E020E931E0F90161
:100620003197F1F70197D9F781E060E041E00E944E
:10063000BB0381E061E041E00E94BB0381E062E036
:1006400041E00E94BB0381E064E041E00E94BB0303
:1006500083E30E942F0282E30E942F0288E20E941D
:100660002F028CE00E942F0281E00E942F02089549
:10067000843008F07FC0683008F07CC0813031F1F0
:10068000813038F0823009F43EC0833009F072C006
:1006900056C0442321F0413009F06CC00CC02BB38C
:1006A00081E090E002C0880F991F6A95E2F780957B
:1006B00082238BBB08952BB381E090E002C0880FAA
:1006C000991F6A95E2F7282B2BBB0895442321F04C
:1006D000413009F04FC00CC028B381E090E002C067
:1006E000880F991F6A95E2F78095822388BB089549
:1006F00028B381E090E002C0880F991F6A95E2F765
:10070000282B28BB0895442319F0413099F50CC0DB
:1007100025B381E090E002C0880F991F6A95E2F747
:100720008095822385BB089525B381E090E002C0C7
:10073000880F991F6A95E2F7282B25BB089544235B
:1007400019F04130B9F40CC022B381E090E002C04E
:10075000880F991F6A95E2F78095822382BB0895DE
:1007600022B381E090E002C0880F991F6A95E2F7FA
:10077000282B22BB0895843008F07FC0683008F031
:100780007CC0813031F1813038F0823009F43EC0D4
:10079000833009F072C056C0442321F0413009F083
:1007A0006CC00CC02AB381E090E002C0880F991F92
:1007B0006A95E2F7809582238ABB08952AB381E087
:1007C00090E002C0880F991F6A95E2F7282B2ABB98
:1007D0000895442321F0413009F04FC00CC027B3E5
:1007E00081E090E002C0880F991F6A95E2F780953A
:1007F000822387BB089527B381E090E002C0880F71
:10080000991F6A95E2F7282B27BB0895442319F016
:10081000413099F50CC024B381E090E002C0880F0C
:10082000991F6A95E2F78095822384BB089524B3CB
:1008300081E090E002C0880F991F6A95E2F7282BAB
:1008400024BB0895442319F04130B9F40CC021B3FE
:1008500081E090E002C0880F991F6A95E2F78095C9
:10086000822381BB089521B381E090E002C0880F0C
:10087000991F6A95E2F7282B21BB08958430D0F4A4
:100880006830C0F4813049F0813028F0823039F08E
:10089000833081F406C089B305C086B303C083B337
:1008A00001C080B390E002C0959587956A95E2F704
:1008B0008170089585E00895843080F4813049F096
:1008C000813028F0823039F0833041F406C06BBBB0
:1008D000089568BB089565BB089562BB0895843090
:1008E00080F4813049F0813028F0823039F0833053
:1008F00041F406C06ABB089567BB089564BB0895C0
:1009000061BB0895843088F4813049F0813028F04B
:10091000823039F0833049F406C089B3089586B334
:10092000089583B3089580B3089585E00895A0E005
:10093000B0E0EDE9F4E00C94CA09DC012B01FA0106
:100940009C91923008F439C1EB018881823008F41F
:1009500033C1943069F4843009F02FC111969C9111
:1009600011978981981709F428C1AEE6B0E025C136
:10097000843009F421C18230A9F4923009F01DC1FC
:100980009A01AD0188E0EA010990AE01E9010992FE
:100990009E018150C1F7E201898111969C918923C2
:1009A000818308C1923009F407C112962D903C90C2
:1009B0001397EB018A819B811496AD90BD90CD90E9
:1009C000DC901797EC80FD800E811F819101281B20
:1009D000390BB90137FF04C066277727621B730BF9
:1009E000603271050CF061C0121613066CF5370108
:1009F0004801062E04C096948794779467940A94CD
:100A0000D2F721E030E040E050E004C0220F331F75
:100A1000441F551F6A95D2F7215030404040504046
:100A20002E213F2140235123211531054105510538
:100A300021F021E030E040E050E079018A01E62831
:100A4000F728082919293CC0232BD1F1260E371E7F
:100A500035014601062E04C09694879477946794D6
:100A60000A94D2F721E030E040E050E004C0220FC9
:100A7000331F441F551F6A95D2F721503040404024
:100A800050402A213B214C215D2121153105410592
:100A9000510521F021E030E040E050E059016A01C9
:100AA000A628B728C828D9280BC0821593052CF092
:100AB0001C01AA24BB24650103C0EE24FF24870186
:100AC00011969C91D20111968C91981709F445C00A
:100AD000992339F0A80197012A193B094C095D09AE
:100AE00006C0A60195012E193F09400B510B57FD79
:100AF00008C0118233822282248335834683578340
:100B00001DC081E081833382228288279927DC01FE
:100B1000821B930BA40BB50B84839583A683B783A9
:100B20000DC0220F331F441F551F24833583468376
:100B300057838281938101979383828324813581B6
:100B400046815781DA01C9010197A109B1098F5F77
:100B50009F4FAF4FBF4328F30BC091833382228254
:100B6000EA0CFB1C0C1D1D1DE482F5820683178315
:100B700083E08083248135814681578157FF1AC0E5
:100B8000C901AA2797FDA095BA2F81709070A07017
:100B9000B0705695479537952795822B932BA42BAC
:100BA000B52B84839583A683B78382819381019635
:100BB00093838283DF0101C0D201CD01CDB7DEB7BF
:100BC000E2E10C94E609A0E2B0E0E9EEF5E00C9475
:100BD000D60969837A838B839C832D833E834F83DD
:100BE0005887E9E0EE2EF12CEC0EFD1ECE010196A9
:100BF000B7010E9411098E010F5E1F4FCE010596AD
:100C0000B8010E9411098A8991E089278A8BC7015E
:100C1000B801AE01475E5F4F0E9497040E943C08F6
:100C2000A096E6E00C94F209A0E2B0E0EAE1F6E07A
:100C30000C94D60969837A838B839C832D833E83AE
:100C40004F835887F9E0EF2EF12CEC0EFD1ECE01FC
:100C50000196B7010E9411098E010F5E1F4FCE0150
:100C60000596B8010E941109C701B801AE01475E9F
:100C70005F4F0E9497040E943C08A096E6E00C9407
:100C8000F209A0E2B0E0E7E4F6E00C94CA09698357
:100C90007A838B839C832D833E834F835887CE0139
:100CA0000196BE01675F7F4F0E941109CE01059634
:100CB000BE016F5E7F4F0E9411099985923088F0C6
:100CC00089898230C8F0943019F4823051F404C01C
:100CD000843029F4923081F48EE690E0C6C09230E0
:100CE00049F420E09A858A89981321E02A87CE0169
:100CF0000996BBC0823049F420E09A858A8998130E
:100D000021E02A8BCE014196B0C02D843E844F84D1
:100D100058886D887E888F88988CEE24FF24870100
:100D2000AA24BB24650140E050E060E070E0E0E010
:100D3000F0E0C10181709070892BE9F0E60CF71C9E
:100D4000081D191D9A01AB012A0D3B1D4C1D5D1D8F
:100D500080E090E0A0E0B0E0E614F7040805190593
:100D600020F481E090E0A0E0B0E0BA01A901480FD2
:100D7000591F6A1F7B1FAA0CBB1CCC1CDD1C97FED5
:100D800008C081E090E0A0E0B0E0A82AB92ACA2A11
:100D9000DB2A3196E032F10549F0660C771C881C9D
:100DA000991C5694479437942794C3CFFA85EA89BF
:100DB0002B893C898B859C85280F391F2E5F3F4FDF
:100DC00017C0CA0181709070892B61F01695079544
:100DD000F794E79480E090E0A0E0B0E8E82AF92AF0
:100DE0000A2B1B2B76956795579547952F5F3F4F9D
:100DF00077FDE7CF0CC0440F551F661F771F17FD07
:100E00004160EE0CFF1C001F111F2150304040308C
:100E100090E0590790E0690790E4790760F32B8F21
:100E20003C8FDB01CA018F779070A070B070803466
:100E30009105A105B10561F447FD0AC0E114F10473
:100E40000105110529F0405C5F4F6F4F7F4F4078DF
:100E50001A8EFE1711F081E08A8F4D8F5E8F6F8F93
:100E600078A383E0898FCE0149960E943C08A09622
:100E7000E2E10C94E609A8E0B0E0E1E4F7E00C94CC
:100E8000D3099B01AC0183E08983DA01C90188277A
:100E9000B7FD83959927AA27BB27B82E21153105C1
:100EA0004105510519F482E089833AC08823A9F0ED
:100EB000203080E0380780E0480780E8580729F4B0
:100EC00060E070E080E09FEC30C0EE24FF248701FA
:100ED000E21AF30A040B150B02C079018A018EE1B4
:100EE000C82ED12CDC82CB82ED82FE820F83188744
:100EF000C801B7010E94ED0701971816190684F47E
:100F0000082E04C0EE0CFF1C001F111F0A94D2F71C
:100F1000ED82FE820F831887C81AD90ADC82CB8241
:100F2000BA82CE0101960E943C082896E9E00C9412
:100F3000EF09ACE0B0E0EFE9F7E00C94DA0969837F
:100F40007A838B839C83CE010196BE016B5F7F4FBA
:100F50000E9411098D81823061F1823050F184301C
:100F600021F48E81882351F12EC02F81388537FDE1
:100F700020C06E812F3131051CF06623F9F023C0AB
:100F80008EE190E0821B930B29853A854B855C8529
:100F900004C056954795379527958A95D2F76623CD
:100FA000B1F050954095309521953F4F4F4F5F4F91
:100FB0000EC020E030E040E050E009C02FEF3FEFEE
:100FC0004FEF5FE704C020E030E040E050E8B901B7
:100FD000CA012C96E2E00C94F609EF92FF920F936F
:100FE0001F937B018C0180E0E81680E0F80681E029
:100FF000080780E0180788F48FEFE816F104010570
:10100000110531F028F088E090E0A0E0B0E017C0D2
:1010100080E090E0A0E0B0E012C080E0E81680E060
:10102000F80680E0080781E0180728F088E190E0E2
:10103000A0E0B0E004C080E190E0A0E0B0E020E2F9
:1010400030E040E050E0281B390B4A0B5B0B04C03A
:1010500016950795F794E7948A95D2F7F701EA5821
:10106000FF4F8081281B310941095109C9011F9196
:101070000F91FF90EF900895DF92EF92FF920F9300
:101080001F93FC01E480F58006811781D180808167
:10109000823048F480E090E0A0E1B0E0E82AF92A4C
:1010A0000A2B1B2BA5C0843009F49FC0823021F489
:1010B000EE24FF24870105C0E114F10401051105A8
:1010C00019F4E0E0F0E096C0628173819FEF62382E
:1010D00079070CF05BC022E83FEF261B370B2A3163
:1010E00031052CF020E030E040E050E02AC0B801AB
:1010F000A701022E04C076956795579547950A94E7
:10110000D2F781E090E0A0E0B0E004C0880F991F22
:10111000AA1FBB1F2A95D2F70197A109B1098E21F9
:101120009F21A023B1230097A105B10521F081E003
:1011300090E0A0E0B0E09A01AB01282B392B4A2BBC
:101140005B2BDA01C9018F779070A070B07080348A
:101150009105A105B10539F427FF09C0205C3F4F77
:101160004F4F5F4F04C0215C3F4F4F4F5F4FE0E058
:10117000F0E02030A0E03A07A0E04A07A0E45A07D8
:1011800010F0E1E0F0E079018A0127C060387105D4
:1011900064F5FB01E158FF4FD801C7018F779070CC
:1011A000A070B07080349105A105B10539F4E7FE57
:1011B0000DC080E490E0A0E0B0E004C08FE390E0D8
:1011C000A0E0B0E0E80EF91E0A1F1B1F17FF05C0C4
:1011D00016950795F794E794319687E0169507954D
:1011E000F794E7948A95D1F705C0EE24FF24870190
:1011F000EFEFF0E06E2F679566276795902F9F774A
:10120000D794DD24D7948E2F8695492F462B582FBF
:101210005D29B701CA011F910F91FF90EF90DF90F8
:101220000895FC01DB01408151812281622F6F779B
:1012300070E0221F2227221F9381892F880F822B83
:10124000282F30E0991F9927991F11969C93119789
:1012500021153105A9F5411551056105710511F4F7
:1012600082E037C082E89FEF13969C938E9312978B
:101270009A01AB0167E0220F331F441F551F6A9587
:10128000D1F783E08C930DC0220F331F441F551FED
:1012900012968D919C911397019713969C938E9320
:1012A0001297203080E0380780E0480780E4580734
:1012B00058F314962D933D934D935C93179708958F
:1012C0002F3F310579F4411551056105710519F478
:1012D00084E08C93089564FF03C081E08C9312C076
:1012E0001C9210C02F57304013963C932E931297A8
:1012F00083E08C9387E0440F551F661F771F8A9504
:10130000D1F7706414964D935D936D937C9317970A
:101310000895629FD001739FF001829FE00DF11D3F
:10132000649FE00DF11D929FF00D839FF00D749F5F
:10133000F00D659FF00D9927729FB00DE11DF91F0B
:10134000639FB00DE11DF91FBD01CF011124089568
:10135000A1E21A2EAA1BBB1BFD010DC0AA1FBB1FB9
:10136000EE1FFF1FA217B307E407F50720F0A21B2B
:10137000B30BE40BF50B661F771F881F991F1A9498
:1013800069F760957095809590959B01AC01BD01C2
:10139000CF0108952F923F924F925F926F927F926A
:1013A0008F929F92AF92BF92CF92DF92EF92FF9275
:1013B0000F931F93CF93DF93CDB7DEB7CA1BDB0B21
:1013C0000FB6F894DEBF0FBECDBF09942A883988C6
:1013D00048885F846E847D848C849B84AA84B984CD
:1013E000C884DF80EE80FD800C811B81AA81B981D9
:1013F000CE0FD11D0FB6F894DEBF0FBECDBFED01ED
:061400000895F894FFCFEF
:1014060048656C6C6F0000000A15110E04000000A0
:1014160000000000000000010202030303030404AD
:10142600040404040404050505050505050505056C
:10143600050505050505060606060606060606064C
:101446000606060606060606060606060606060636
:10145600060606060606070707070707070707071C
:101466000707070707070707070707070707070706
:1014760007070707070707070707070707070707F6
:1014860007070707070707070707070707070707E6
:1014960007070707070708080808080808080808CC
:1014A60008080808080808080808080808080808B6
:1014B60008080808080808080808080808080808A6
:1014C6000808080808080808080808080808080896
:1014D6000808080808080808080808080808080886
:1014E6000808080808080808080808080808080876
:1014F6000808080808080808080808080808080866
:101506000808080808080808080808080808080855
:061516000808080808089F
:00000001FF
