:100000000C942A000C9434000C9434000C943400AA
:100010000C9434000C9434000C9434000C94340090
:100020000C9434000C9434000C9434000C94340080
:100030000C9434000C9434000C9434000C94340070
:100040000C9434000C9434000C9434000C94340060
:100050000C94340011241FBECFE5D8E0DEBFCDBF25
:100060000E9436000C94B7010C940000CF93DF93EC
:1000700080E066E041E00E94DB00C0E9D1E080E082
:1000800066E041E00E94580088E893E1FE01319764
:10009000F1F70197D9F780E066E040E00E94580050
:1000A00088E893E1FE013197F1F70197D9F7E7CF9F
:1000B000843008F07FC0683008F07CC0813031F1B6
:1000C000813038F0823009F43EC0833009F072C0CC
:1000D00056C0442321F0413009F06CC00CC02BB352
:1000E00081E090E002C0880F991F6A95E2F7809541
:1000F00082238BBB08952BB381E090E002C0880F70
:10010000991F6A95E2F7282B2BBB0895442321F011
:10011000413009F04FC00CC028B381E090E002C02C
:10012000880F991F6A95E2F78095822388BB08950E
:1001300028B381E090E002C0880F991F6A95E2F72A
:10014000282B28BB0895442319F0413099F50CC0A1
:1001500025B381E090E002C0880F991F6A95E2F70D
:100160008095822385BB089525B381E090E002C08D
:10017000880F991F6A95E2F7282B25BB0895442321
:1001800019F04130B9F40CC022B381E090E002C014
:10019000880F991F6A95E2F78095822382BB0895A4
:1001A00022B381E090E002C0880F991F6A95E2F7C0
:1001B000282B22BB0895843008F07FC0683008F0F7
:1001C0007CC0813031F1813038F0823009F43EC09A
:1001D000833009F072C056C0442321F0413009F049
:1001E0006CC00CC02AB381E090E002C0880F991F58
:1001F0006A95E2F7809582238ABB08952AB381E04D
:1002000090E002C0880F991F6A95E2F7282B2ABB5D
:100210000895442321F0413009F04FC00CC027B3AA
:1002200081E090E002C0880F991F6A95E2F78095FF
:10023000822387BB089527B381E090E002C0880F36
:10024000991F6A95E2F7282B27BB0895442319F0DC
:10025000413099F50CC024B381E090E002C0880FD2
:10026000991F6A95E2F78095822384BB089524B391
:1002700081E090E002C0880F991F6A95E2F7282B71
:1002800024BB0895442319F04130B9F40CC021B3C4
:1002900081E090E002C0880F991F6A95E2F780958F
:1002A000822381BB089521B381E090E002C0880FD2
:1002B000991F6A95E2F7282B21BB08958430D0F46A
:1002C0006830C0F4813049F0813028F0823039F054
:1002D000833081F406C089B305C086B303C083B3FD
:1002E00001C080B390E002C0959587956A95E2F7CA
:1002F0008170089585E00895843080F4813049F05C
:10030000813028F0823039F0833041F406C06BBB75
:10031000089568BB089565BB089562BB0895843055
:1003200080F4813049F0813028F0823039F0833018
:1003300041F406C06ABB089567BB089564BB089585
:1003400061BB0895843088F4813049F0813028F011
:10035000823039F0833049F406C089B3089586B3FA
:10036000089583B3089580B3089585E00895F894BF
:02037000FFCFBD
:00000001FF
