:100000000C942A000C943F000C943F000C943F0089
:100010000C943F000C943F000C943F000C943F0064
:100020000C943F000C943F000C943F000C943F0054
:100030000C943F000C943F000C943F000C943F0044
:100040000C943F000C943F000C943F000C943F0034
:100050000C943F0011241FBECFE5D8E0DEBFCDBF1A
:1000600010E0A0E6B0E0ECE1F5E002C005900D92F2
:10007000A037B107D9F70E9441000C948C020C9470
:1000800000000E94E2000E947A020E944C008F3F12
:10009000E1F30E948402F9CF2F923F924F925F9238
:1000A0007F928F929F92AF92BF92CF92DF92EF9208
:1000B000FF920F931F93DF93CF93CDB7DEB72897AF
:1000C0000FB6F894DEBF0FBECDBF25E0298384E0D4
:1000D0008A8393E09B8382E08C8387E08D8386E034
:1000E0008E832F83988777247A94AA24BB240F2E9B
:1000F000F0E62F2EF0E03F2EF02D0F2EF0E44F2EE5
:10010000FCE95F2EF02D0F2EF9E08F2E9924F02DB3
:100110008C0E9D1EE1E0F0E0EC0FFD1FEA0DFB1DD3
:10012000C08082E06C2D40E00E941F018E010B5FB9
:100130001F4FC501880F991F880F991F7101E80E85
:10014000F91EF801D08083E06D2D0E9447028823BC
:1001500059F4C2010197F1F7F701708083E06D2D2A
:100160000E9447028823D1F30F5F1F4F0894E11CC0
:10017000F11C0815190529F782E06C2D41E00E9459
:100180001F010894A11CB11CF4E0AF16B10409F0E2
:10019000C1CF872D28960FB6F894DEBF0FBECDBF16
:1001A000CF91DF911F910F91FF90EF90DF90CF9053
:1001B000BF90AF909F908F907F905F904F903F90B7
:1001C0002F90089582E065E041E00E94B30182E053
:1001D00064E041E00E94B30182E063E041E00E94FC
:1001E000B30182E062E041E00E94B30183E067E096
:1001F00040E00E94B30183E066E040E00E94B3016A
:1002000083E065E040E00E94B30183E063E040E00A
:100210000E94B30183E067E041E00E941F0183E098
:1002200066E041E00E941F0183E065E041E00E943A
:100230001F0183E063E041E00E941F0108958430C4
:1002400008F090C0683008F08DC0813051F18130E5
:1002500038F0823009F446C0833009F083C063C0AF
:10026000442321F0413009F07DC00EC0EBE3F0E003
:10027000208181E090E002C0880F991F6A95E2F723
:100280008095822380830895EBE3F0E0208181E074
:1002900090E002C0880F991F6A95E2F7282B20830F
:1002A0000895442321F0413009F05CC00EC0E8E31A
:1002B000F0E0208181E090E002C0880F991F6A95EC
:1002C000E2F78095822380830895E8E3F0E02081BF
:1002D00081E090E002C0880F991F6A95E2F7282B11
:1002E00020830895442321F0413009F03BC00EC023
:1002F000E5E3F0E0208181E090E002C0880F991FE3
:100300006A95E2F78095822380830895E5E3F0E023
:10031000208181E090E002C0880F991F6A95E2F782
:10032000282B20830895442319F04130D9F40EC0BE
:10033000E2E3F0E0208181E090E002C0880F991FA5
:100340006A95E2F78095822380830895E2E3F0E0E6
:10035000208181E090E002C0880F991F6A95E2F742
:10036000282B20830895843008F090C0683008F06E
:100370008DC0813051F1813038F0823009F446C0AF
:10038000833009F083C063C0442321F0413009F079
:100390007DC00EC0EAE3F0E0208181E090E002C081
:1003A000880F991F6A95E2F78095822380830895CC
:1003B000EAE3F0E0208181E090E002C0880F991F1D
:1003C0006A95E2F7282B20830895442321F04130D9
:1003D00009F05CC00EC0E7E3F0E0208181E090E02E
:1003E00002C0880F991F6A95E2F780958223808367
:1003F0000895E7E3F0E0208181E090E002C0880FFB
:10040000991F6A95E2F7282B20830895442321F051
:10041000413009F03BC00EC0E4E3F0E0208181E010
:1004200090E002C0880F991F6A95E2F780958223B9
:1004300080830895E4E3F0E0208181E090E002C051
:10044000880F991F6A95E2F7282B2083089544238B
:1004500019F04130D9F40EC0E1E3F0E0208181E0F1
:1004600090E002C0880F991F6A95E2F78095822379
:1004700080830895E1E3F0E0208181E090E002C014
:10048000880F991F6A95E2F7282B208308958430FE
:1004900078F5683068F5813081F0813028F082305D
:1004A000A9F0833029F51BC089B390E002C095956F
:1004B00087956A95E2F78170089586B390E002C04F
:1004C000959587956A95E2F78170089583B390E0DA
:1004D00002C0959587956A95E2F78170089580B37B
:1004E00090E002C0959587956A95E2F7817008952E
:1004F00085E0089583E389B9E0E4F0E0108286E8BE
:10050000808388E18AB90895982FEBE2F0E080813A
:0C05100085FFFDCF9CB90895F894FFCF43
:10051C003738392F3435362A3132332D43303D2B91
:00000001FF
