:100000000C942A000C943F000C943F000C943F0089
:100010000C943F000C943F000C943F000C943F0064
:100020000C943F000C943F000C943F000C943F0054
:100030000C943F000C943F000C943F000C943F0044
:100040000C943F000C943F000C943F000C943F0034
:100050000C943F0011241FBECFE5D8E0DEBFCDBF1A
:1000600010E0A0E6B0E0E6EDF5E002C005900D92EC
:10007000A037B107D9F70E9441000C94E9020C9413
:1000800000000E947E010E94D80280E062E040E60B
:1000900050E00E94520181E060E00E942E010E9427
:1000A000E2020E946B00FBCF0F931F9380E062E09F
:1000B00041E00E94B00100ED17E0C8010197F1F79F
:1000C00080E062E040E00E94B001C8010197F1F7D2
:1000D0001F910F9108951F93182F482F441F4427F5
:1000E000441F81E064E00E94B001412F4295469593
:1000F00046954370417081E062E00E94B001412F5B
:10010000429546954770417081E061E00E94B001E0
:10011000412F42954F70417081E060E00E94B00134
:1001200080E063E041E00E94B0010E945400412F52
:10013000469546954695417081E064E00E94B00185
:10014000412F46954695417081E062E00E94B001E2
:10015000412F4695417081E061E00E94B00111702D
:1001600081E060E0412F0E94B00180E063E041E067
:100170000E94B0010E94540080ED97E00197F1F7D2
:100180001F9108951F93CF93DF93EC0188818823FB
:1001900051F010E00E946B001F5FFE01E10FF11DA6
:1001A00080818823B9F7DF91CF911F9108951F9324
:1001B000182F482F441F4427441F81E064E00E9409
:1001C000B001412F4295469546954370417081E0BC
:1001D00062E00E94B001412F429546954770417000
:1001E00081E061E00E94B001412F42954F70417063
:1001F00081E060E00E94B00180E063E040E00E94A6
:10020000B0010E945400412F469546954695417095
:1002100081E064E00E94B001412F4695469541700F
:1002200081E062E00E94B001412F4695417081E07B
:1002300061E00E94B001117081E060E0412F0E94F6
:10024000B00180E063E040E00E94B0010E945400F1
:1002500080ED97E00197F1F71F910895882339F415
:100260006431F8F4862F80580E94D70008958130B9
:1002700039F46431B0F4862F80540E94D700089579
:10028000823039F4643168F4862F8C560E94D7008E
:100290000895833031F4643120F4862F8C520E940B
:1002A000D7000895CF93DF93EA01882339F46431AE
:1002B000F8F4862F80580E94D7001AC0813039F494
:1002C0006431B0F4862F80540E94D70011C0823070
:1002D00039F4643168F4862F8C560E94D70008C028
:1002E000833031F4643120F4862F8C520E94D70081
:1002F000CE010E94C200DF91CF91089580E063E0BB
:1003000041E00E94440280E062E041E00E94440239
:1003100080E49CE90197F1F781E060E041E00E9410
:10032000440281E061E041E00E94440281E062E039
:1003300041E00E94440281E064E041E00E94440206
:1003400083E30E94D70082E30E94D70088E20E94E4
:10035000D7008CE00E94D70081E00E94D70008956A
:10036000843008F090C0683008F08DC0813051F1C1
:10037000813038F0823009F446C0833009F083C000
:1003800063C0442321F0413009F07DC00EC0EBE38F
:10039000F0E0208181E090E002C0880F991F6A950B
:1003A000E2F78095822380830895EBE3F0E02081DB
:1003B00081E090E002C0880F991F6A95E2F7282B30
:1003C00020830895442321F0413009F05CC00EC021
:1003D000E8E3F0E0208181E090E002C0880F991FFF
:1003E0006A95E2F78095822380830895E8E3F0E040
:1003F000208181E090E002C0880F991F6A95E2F7A2
:10040000282B20830895442321F0413009F03BC07C
:100410000EC0E5E3F0E0208181E090E002C0880FAB
:10042000991F6A95E2F78095822380830895E5E31A
:10043000F0E0208181E090E002C0880F991F6A956A
:10044000E2F7282B20830895442319F04130D9F492
:100450000EC0E2E3F0E0208181E090E002C0880F6E
:10046000991F6A95E2F78095822380830895E2E3DD
:10047000F0E0208181E090E002C0880F991F6A952A
:10048000E2F7282B20830895843008F090C068306C
:1004900008F08DC0813051F1813038F0823009F49C
:1004A00046C0833009F083C063C0442321F041304B
:1004B00009F07DC00EC0EAE3F0E0208181E090E029
:1004C00002C0880F991F6A95E2F780958223808386
:1004D0000895EAE3F0E0208181E090E002C0880F17
:1004E000991F6A95E2F7282B20830895442321F071
:1004F000413009F05CC00EC0E7E3F0E0208181E00C
:1005000090E002C0880F991F6A95E2F780958223D8
:1005100080830895E7E3F0E0208181E090E002C06D
:10052000880F991F6A95E2F7282B208308954423AA
:1005300021F0413009F03BC00EC0E4E3F0E020813F
:1005400081E090E002C0880F991F6A95E2F78095DC
:10055000822380830895E4E3F0E0208181E090E04D
:1005600002C0880F991F6A95E2F7282B208308950F
:10057000442319F04130D9F40EC0E1E3F0E02081CA
:1005800081E090E002C0880F991F6A95E2F780959C
:10059000822380830895E1E3F0E0208181E090E010
:1005A00002C0880F991F6A95E2F7282B20830895CF
:1005B00083E389B9E0E4F0E0108286E8808388E193
:1005C0008AB90895EBE2F0E080818823ECF78CB1E2
:0605D0000895F894FFCF2E
:1005D600526563696576656420446174613A00001A
:00000001FF
