:100000000C942A000C94FB000C9422010C944901DE
:100010000C9447000C9447000C9447000C94470044
:100020000C9447000C9447000C9447000C94470034
:100030000C9447000C9447000C9447000C94470024
:100040000C9447000C9447000C9447000C94470014
:100050000C94470011241FBECFE5D8E0DEBFCDBF12
:1000600010E0A0E6B0E0ECE9F6E002C005900D92E9
:10007000A436B107D9F710E0A4E6B0E001C01D92A4
:10008000AA36B107E1F70E9454000C944C030C947B
:100090000000609160007091610080916200909119
:1000A00063000E9496010895609160007091610064
:1000B00080916200909163000E94BC010E947001D7
:1000C00082E063E00E946A0089E490E062E00E94BE
:1000D000F200FFCF8230D9F1833009F46DC0813056
:1000E00009F07FC0623029F1633018F4613049F5BE
:1000F00005C06330A9F0643021F509C0E5E5F0E002
:1001000080818E7F80838081826080831AC0E5E554
:10011000F0E080818E7F808380818D7F808311C01D
:10012000E5E5F0E080818160808380818D7F808340
:1001300008C0E5E5F0E08081816080838081826095
:100140008083EBE5F0E080818064808308956230F5
:1001500029F1633018F4613049F505C06330A9F026
:10016000643021F509C0E5E5F0E080818B7F808374
:100170008081886080831AC0E5E5F0E080818B7F14
:1001800080838081877F808311C0E5E5F0E08081F6
:10019000846080838081877F808308C0E5E5F0E00C
:1001A000808184608083808188608083EBE5F0E0DB
:1001B0008081806880830895613019F0623061F435
:1001C00006C0E4E5F0E080818F7B808305C0E4E534
:1001D000F0E0808180648083EBE5F0E080818062E4
:1001E00080830895E62FF0E0EE0FFF1FEC59FF4FDC
:1001F0009183808308951F920F920FB60F9211245E
:100200002F933F934F935F936F937F938F939F931E
:10021000AF93BF93EF93FF93E0916600F091670077
:100220000995FF91EF91BF91AF919F918F917F9130
:100230006F915F914F913F912F910F900FBE0F9053
:100240001F9018951F920F920FB60F9211242F93A3
:100250003F934F935F936F937F938F939F93AF934E
:10026000BF93EF93FF93E0916800F09169000995C7
:10027000FF91EF91BF91AF919F918F917F916F917E
:100280005F914F913F912F910F900FBE0F901F9054
:1002900018951F920F920FB60F9211242F933F9330
:1002A0004F935F936F937F938F939F93AF93BF937E
:1002B000EF93FF93E0916A00F0916B000995FF9135
:1002C000EF91BF91AF919F918F917F916F915F91CE
:1002D0004F913F912F910F900FBE0F901F90189547
:1002E000EFE5F0E08081806880830895882341F005
:1002F000813059F4862F672F40E00E94F101089564
:10030000862F672F41E00E94F1010895882341F074
:10031000813059F4862F672F41E00E94F101089542
:10032000862F672F40E00E94F1010895EF92FF921F
:100330000F931F93F82EE92E162F072F862F672F66
:100340000E941903882339F4612F702F8F2D9E2D61
:100350000E9486010CC0812F602F0E9419038130FA
:1003600031F4612F702F8F2D9E2D0E9476011F91E9
:100370000F91FF90EF900895EF92FF920F931F93CC
:10038000082FF62EE72E192F862F672F41E00E94A7
:100390008502002391F00130F9F4112341F011306E
:1003A000D9F48F2D6E2D41E00E94F10115C08F2DE3
:1003B0006E2D40E00E94F1010FC0112341F0113079
:1003C00059F48F2D6E2D40E00E94F10105C08F2D54
:1003D0006E2D41E00E94F1011F910F91FF90EF906F
:1003E0000895843008F090C0683008F08DC08130E6
:1003F00051F1813038F0823009F446C0833009F081
:1004000083C063C0442321F0413009F07DC00EC099
:10041000EBE3F0E0208181E090E002C0880F991FBB
:100420006A95E2F78095822380830895EBE3F0E0FC
:10043000208181E090E002C0880F991F6A95E2F761
:10044000282B20830895442321F0413009F05CC01B
:100450000EC0E8E3F0E0208181E090E002C0880F68
:10046000991F6A95E2F78095822380830895E8E3D7
:10047000F0E0208181E090E002C0880F991F6A952A
:10048000E2F7282B20830895442321F0413009F01E
:100490003BC00EC0E5E3F0E0208181E090E002C0C7
:1004A000880F991F6A95E2F78095822380830895CB
:1004B000E5E3F0E0208181E090E002C0880F991F21
:1004C0006A95E2F7282B20830895442319F04130E0
:1004D000D9F40EC0E2E3F0E0208181E090E002C0B8
:1004E000880F991F6A95E2F780958223808308958B
:1004F000E2E3F0E0208181E090E002C0880F991FE4
:100500006A95E2F7282B20830895843008F090C084
:10051000683008F08DC0813051F1813038F0823080
:1005200009F446C0833009F083C063C0442321F03E
:10053000413009F07DC00EC0EAE3F0E0208181E0A7
:1005400090E002C0880F991F6A95E2F78095822398
:1005500080830895EAE3F0E0208181E090E002C02A
:10056000880F991F6A95E2F7282B2083089544236A
:1005700021F0413009F05CC00EC0E7E3F0E02081DB
:1005800081E090E002C0880F991F6A95E2F780959C
:10059000822380830895E7E3F0E0208181E090E00A
:1005A00002C0880F991F6A95E2F7282B20830895CF
:1005B000442321F0413009F03BC00EC0E4E3F0E0F9
:1005C000208181E090E002C0880F991F6A95E2F7D0
:1005D0008095822380830895E4E3F0E0208181E028
:1005E00090E002C0880F991F6A95E2F7282B2083BC
:1005F0000895442319F04130D9F40EC0E1E3F0E04E
:10060000208181E090E002C0880F991F6A95E2F78F
:100610008095822380830895E1E3F0E0208181E0EA
:1006200090E002C0880F991F6A95E2F7282B20837B
:100630000895843078F5683068F5813081F0813034
:1006400028F08230A9F0833029F51BC089B390E0EF
:1006500002C0959587956A95E2F78170089586B3F3
:1006600090E002C0959587956A95E2F781700895AC
:1006700083B390E002C0959587956A95E2F7817003
:10068000089580B390E002C0959587956A95E2F74A
:0C0690008170089585E00895F894FFCF74
:04069C000006010053
:00000001FF
