:100000000C942A000C943F000C943F000C943F0089
:100010000C943F000C943F000C943F000C943F0064
:100020000C943F000C943F000C943F000C943F0054
:100030000C943F000C943F000C943F000C943F0044
:100040000C943F000C943F000C943F000C943F0034
:100050000C943F0011241FBECFE5D8E0DEBFCDBF1A
:1000600010E0A0E6B0E0E2ECFBE002C005900D92EB
:10007000A03CB107D9F70E947A000C94DF050C94DC
:10008000000020E030E080538A3010F421E030E0BE
:10009000822F932F089580E060E040E650E00E94B8
:1000A000D20380E060E044E750E00E94D20381E0A8
:1000B00060E04AE750E00E94D20382E060E044E85A
:1000C00050E00E94D20320E335E740E951E0CA0145
:1000D0000197F1F721503040D1F70E94AA0380E048
:1000E00063E040E950E00E94D20381E060E00E94BA
:1000F000AE0308952F923F924F925F926F927F923C
:100100008F929F92AF92BF92CF92DF92EF92FF9227
:100110000F931F93DF93CF93CDB7DEB72C970FB616
:10012000F894DEBF0FBECDBFFE0131968CE0DF013B
:100130001D928A95E9F70E94FE030E9436040E94F0
:10014000FC0180E063E040E950E00E94D20381E0DE
:1001500060E00E94AE036624772410E00F2EF0E9E1
:100160002F2EF0E03F2EF02D0F2EFEE94F2EF0E067
:100170005F2EF02D01C010E00E945E01082F8F3F1E
:10018000D9F3112339F40E944100892B39F40E94DC
:100190004B00F2CF0E944100892B91F1C301880FDF
:1001A000991F880F991FCC24DD24C394CC0EDD1E2B
:1001B000C80ED91EE02EFF24E0EDFFEFEE0EFF1E6D
:1001C0004701AA2497FCA094BA2CD6016D917D9189
:1001D0008D919C912AE030E040E050E00E949E0525
:1001E000DC01CB01880D991DAA1DBB1DF601808382
:1001F0009183A283B383802F0E949A0211E0BCCF27
:100200000B3271F482E060E04CE950E00E94D203CE
:1002100083E060E00E94AE03662477246394ACCF51
:100220000D3371F5F1E06F16710409F0A4CF81E090
:1002300060E0A2010E94D20382E060E0A2010E947D
:10024000D20383E060E0A2010E94D20381E060E07B
:100250000E94AE0369817A818B819C812D813E81D0
:100260004F815885620F731F841F951F6D877E878E
:100270008F87988B0E94F1026624772410E07CCF50
:10028000033409F079CF19821A821B821C821D82E5
:100290001E821F8218861D861E861F86188A0E944F
:1002A000AA0380E063E0A1010E94D20381E060E044
:1002B0000E94AE036624772410E05ECF3F924F92F7
:1002C0005F926F927F928F929F92AF92BF92CF92E6
:1002D000DF92EF92FF920F931F93DF93CF93CDB7EF
:1002E000DEB728970FB6F894DEBF0FBECDBF95E0FE
:1002F000998384E08A8323E02B8382E08C8387E0E8
:100300008D8386E08E839F83288755245A94882482
:10031000992400E911E00F2EF9E06F2E7724F02DDB
:100320006C0E7D1E88EC90E0482E392EE1E0F0E066
:10033000EC0FFD1FE80DF91DA08082E06A2D40E062
:100340000E9443040F2EF5E0EF2EFF24F02DEC0E5B
:10035000FD1EC401880F991F880F991F0F2EFFEAF9
:10036000CF2EF0E0DF2EF02DC80ED91EF701B080A1
:1003700083E06B2D0E946B05882379F4842D932DE7
:10038000F8013197F1F70197D9F7F601508083E032
:100390006B2D0E946B058823D1F30894E11CF11C9E
:1003A0000894C11CD11CE614F70401F782E06A2D01
:1003B00041E00E9443040894811C911CF4E08F16D4
:1003C000910409F0B3CF852D28960FB6F894DEBFBF
:1003D0000FBECDBFCF91DF911F910F91FF90EF9096
:1003E000DF90CF90BF90AF909F908F907F906F9055
:1003F0005F904F903F90089582E065E041E00E9459
:10040000D70482E064E041E00E94D70482E063E028
:1004100041E00E94D70482E062E041E00E94D704FC
:1004200083E067E040E00E94D70483E066E040E0BC
:100430000E94D70483E065E040E00E94D70483E097
:1004400063E040E00E94D70483E067E041E00E945F
:10045000430483E066E041E00E94430483E065E0FA
:1004600041E00E94430483E063E041E00E944304D2
:100470000895AF92BF92CF92DF92EF92FF920F93C7
:100480001F935B016C01611571058105910529F4CC
:10049000EE24FF248701E39429C0EE24FF24870182
:1004A000E394C801B7012AE030E040E050E00E9448
:1004B0009E057B018C01C601B5010E94BD05E60EBB
:1004C000F71E081F191FC601B5012AE030E040E001
:1004D00050E00E94BD05822F932FA42FB52F5C0101
:1004E0006D01A114B104C104D104D9F66E2D7F2D84
:1004F000802F912F1F910F91FF90EF90DF90CF9061
:10050000BF90AF9008950F931F9380E062E041E0A9
:100510000E94430400EA1FE0C8010197F1F780E060
:1005200062E040E00E944304C8010197F1F71F9187
:100530000F9108951F93182F482F441F4427441FDD
:1005400081E064E00E944304412F42954695469520
:100550004370417081E062E00E944304412F429564
:1005600046954770417081E061E00E944304412F4D
:1005700042954F70417081E060E00E94430480E04A
:1005800063E041E00E9443040E948302412F4695AC
:1005900046954695417081E064E00E944304412FF6
:1005A00046954695417081E062E00E944304412FE8
:1005B0004695417081E061E00E944304117081E042
:1005C00060E0412F0E94430480E063E041E00E942C
:1005D00043040E94830280EA9FE00197F1F71F9194
:1005E0000895EF92FF920F931F9361157105810596
:1005F000910521F480E30E949A023BC099235CF4A8
:10060000EE24FF248701E61AF70A080B190B8DE286
:100610000E949A0202C07B018C01C801B7010E94AE
:1006200039027B018C0181E0E816F1040105110516
:1006300001F1C801B7012AE030E040E050E00E943B
:10064000BD05862F805D0E949A02C801B7012AE08D
:1006500030E040E050E00E94BD05822F932FA42F90
:10066000B52F7C018D0181E0E816F104010511052B
:1006700001F71F910F91FF90EF9008951F93CF9373
:10068000DF93EC018881882351F010E00E949A02E8
:100690001F5FFE01E10FF11D80818823B9F7DF9113
:1006A000CF911F9108951F93182F482F441F44275F
:1006B000441F81E064E00E944304412F4295469527
:1006C00046954370417081E062E00E944304412FEF
:1006D000429546954770417081E061E00E94430475
:1006E000412F42954F70417081E060E00E944304C9
:1006F00080E063E040E00E9443040E948302412FB7
:10070000469546954695417081E064E00E94430419
:10071000412F46954695417081E062E00E94430476
:10072000412F4695417081E061E00E9443041170C1
:1007300081E060E0412F0E94430480E063E040E0FC
:100740000E9443040E94830280EA9FE00197F1F730
:100750001F91089581E00E9453030895882339F47E
:100760006431F8F4862F80580E9453030895813035
:1007700039F46431B0F4862F80540E9453030895F5
:10078000823039F4643168F4862F8C560E9453030A
:100790000895833031F4643120F4862F8C520E9406
:1007A00053030895CF93DF93EA01882339F464312A
:1007B000F8F4862F80580E9453031AC0813039F410
:1007C0006431B0F4862F80540E94530311C08230EC
:1007D00039F4643168F4862F8C560E94530308C0A4
:1007E000833031F4643120F4862F8C520E945303FD
:1007F000CE010E943E03DF91CF91089580E063E037
:1008000041E00E94D70480E062E041E00E94D7040A
:1008100028EC30E040E951E0CA010197F1F721509E
:100820003040D1F781E060E041E00E94D70481E0F0
:1008300061E041E00E94D70481E062E041E00E9473
:10084000D70481E064E041E00E94D70483E30E9482
:10085000530382E30E94530388E20E9453038CE017
:100860000E94530381E00E9453030895EAE3F0E0FD
:1008700080818E7F808380818D7F808380E487B9B3
:1008800087E886B90895843008F090C0683008F091
:100890008DC0813051F1813038F0823009F446C08A
:1008A000833009F083C063C0442321F0413009F054
:1008B0007DC00EC0EBE3F0E0208181E090E002C05B
:1008C000880F991F6A95E2F78095822380830895A7
:1008D000EBE3F0E0208181E090E002C0880F991FF7
:1008E0006A95E2F7282B20830895442321F04130B4
:1008F00009F05CC00EC0E8E3F0E0208181E090E008
:1009000002C0880F991F6A95E2F780958223808341
:100910000895E8E3F0E0208181E090E002C0880FD4
:10092000991F6A95E2F7282B20830895442321F02C
:10093000413009F03BC00EC0E5E3F0E0208181E0EA
:1009400090E002C0880F991F6A95E2F78095822394
:1009500080830895E5E3F0E0208181E090E002C02B
:10096000880F991F6A95E2F7282B20830895442366
:1009700019F04130D9F40EC0E2E3F0E0208181E0CB
:1009800090E002C0880F991F6A95E2F78095822354
:1009900080830895E2E3F0E0208181E090E002C0EE
:1009A000880F991F6A95E2F7282B208308958430D9
:1009B00008F090C0683008F08DC0813051F181306E
:1009C00038F0823009F446C0833009F083C063C038
:1009D000442321F0413009F07DC00EC0EAE3F0E08D
:1009E000208181E090E002C0880F991F6A95E2F7AC
:1009F0008095822380830895EAE3F0E0208181E0FE
:100A000090E002C0880F991F6A95E2F7282B208397
:100A10000895442321F0413009F05CC00EC0E7E3A3
:100A2000F0E0208181E090E002C0880F991F6A9574
:100A3000E2F78095822380830895E7E3F0E0208148
:100A400081E090E002C0880F991F6A95E2F7282B99
:100A500020830895442321F0413009F03BC00EC0AB
:100A6000E4E3F0E0208181E090E002C0880F991F6C
:100A70006A95E2F78095822380830895E4E3F0E0AD
:100A8000208181E090E002C0880F991F6A95E2F70B
:100A9000282B20830895442319F04130D9F40EC047
:100AA000E1E3F0E0208181E090E002C0880F991F2F
:100AB0006A95E2F78095822380830895E1E3F0E070
:100AC000208181E090E002C0880F991F6A95E2F7CB
:100AD000282B20830895843078F5683068F58130BC
:100AE00081F0813028F08230A9F0833029F51BC0D5
:100AF00089B390E002C0959587956A95E2F7817079
:100B0000089586B390E002C0959587956A95E2F7BF
:100B10008170089583B390E002C0959587956A959A
:100B2000E2F78170089580B390E002C095958795B3
:100B30006A95E2F78170089585E00895629FD0017B
:100B4000739FF001829FE00DF11D649FE00DF11D88
:100B5000929FF00D839FF00D749FF00D659FF00D37
:100B60009927729FB00DE11DF91F639FB00DE11D24
:100B7000F91FBD01CF0111240895A1E21A2EAA1B6D
:100B8000BB1BFD010DC0AA1FBB1FEE1FFF1FA2173D
:100B9000B307E407F50720F0A21BB30BE40BF50B3A
:100BA000661F771F881F991F1A9469F760957095C3
:100BB000809590959B01AC01BD01CF010895F894FB
:020BC000FFCF65
:100BC2002020202020202020202020202020202023
:100BD200202020004552524F5200464F524D415460
:100BE200206973004E554D31202B204E554D320059
:100BF20043616C63756C61746F723A002B00202044
:100C020020202020202020202020202020200037EB
:100C120038392F3435362A3132332D43303D2B00CB
:00000001FF
